:020000040800F2
:10000000000400204701000885010008870100085E
:100010008B0100088F010008930100080000000018
:100020000000000000000000000000009701000830
:1000300099010008000000009B0100089D010008D4
:1000400067010008670100086701000867010008F0
:1000500067010008670100086701000867010008E0
:1000600067010008670100086701000867010008D0
:1000700067010008670100086701000867010008C0
:1000800067010008670100086701000867010008B0
:1000900067010008670100086701000867010008A0
:1000A0006701000867010008670100086701000890
:1000B0006701000867010008670100086701000880
:1000C0006701000867010008670100086701000870
:1000D0006701000867010008670100086701000860
:1000E0006701000867010008670100086701000850
:1000F0006701000867010008670100086701000840
:10010000670100086701000867010008670100082F
:10011000670100086701000867010008670100081F
:10012000670100086701000867010008670100080F
:10013000DFF80CD000F052FE0048004775010008BF
:1001400018020020704708488047084981F3088852
:1001500007480047FEE7FEE7FEE7FEE7FEE7FEE7AB
:10016000FEE7FEE7FEE7FEE7450100081802002073
:100170003101000800F007FE00F012F801E000F085
:1001800065F8FCE7704700BFFEE700BFFEE700BF71
:10019000FEE700BFFEE770477047704770470000FA
:1001A00000B585B0012144F2040000F05EFB4FF47D
:1001B0000070ADF8100018208DF8130003208DF8A2
:1001C000120004A9294800F0BDF84FF48060ADF892
:1001D000100004208DF8130004A9244800F0B2F8A0
:1001E0004FF4E13000900020ADF80400ADF80600B7
:1001F000ADF80800ADF80C000C20ADF80A00694617
:100200001B4800F0E6FB0121194800F050FC05B046
:1002100000BD10B504462146154800F0B3FC00BFF0
:100220008021134800F005FD0028F9D010BD10B55D
:10023000044620210E4800F0FCFC08B9002010BD47
:100240000B4800F0A3FC20700120F8E708B500205F
:1002500000900AE004E09DF80010054800F092FCD0
:100260006846FFF7E4FF0028F5D1F3E700080140F6
:100270000038014010B50446C549601A8C422FD0A1
:1002800009DCC448201810D0B0F5806F16D0B0F546
:10029000006F4AD11BE0B0F5806F2AD0B0F5006F37
:1002A00030D0B0F5406F40D135E00121042000F09E
:1002B000F6FA0021042000F0F2FA37E001210820CC
:1002C00000F0EDFA0021082000F0E9FA2EE001210B
:1002D000102000F0E4FA0021102000F0E0FA25E000
:1002E0000121202000F0DBFA0021202000F0D7FAC5
:1002F0001CE00121402000F0D2FA0021402000F053
:10030000CEFA13E00121802000F0C9FA00218020FC
:1003100000F0C5FA0AE00121080200F0C0FA00214D
:100320004FF4807000F0BBFA00E000BF00BF10BDCA
:1003300010B50121084600F0B2FA0021012000F0BA
:10034000AEFA10BD2DE9F04102460025002600203E
:1003500000230024002791F803C00CF00F0591F84A
:1003600003C01CF0100F03D091F802C04CEA050541
:10037000B1F800C01CF0FF0F31D0146800202BE052
:100380004FF0010C0CFA00F3B1F800C00CEA0306C0
:100390009E4220D183004FF00F0C0CFA03F7BC43B0
:1003A00005FA03FC4CEA040491F803C0BCF1280FE1
:1003B00006D14FF0010C0CFA00FCC2F814C00AE0A0
:1003C00091F803C0BCF1480F05D14FF0010C0CFAB5
:1003D00000FCC2F810C0401C0828D1D31460B1F84A
:1003E00000C0BCF1FF0F34DD546800202EE000F1A6
:1003F000080C4FF0010808FA0CF3B1F800C00CEA41
:1004000003069E4221D183004FF00F0C0CFA03F734
:10041000BC4305FA03FC4CEA040491F803C0BCF1A8
:10042000280F05D100F1080C08FA0CF8C2F8148066
:1004300091F803C0BCF1480F07D100F1080C4FF050
:10044000010808FA0CF8C2F81080401C0828CED326
:100450005460BDE8F0814FF6FF7101800221817088
:100460000421C17070470246002093680B4201D0FE
:10047000012000E0002070470146886880B2704784
:1004800002460020D3680B4201D0012000E000208A
:1004900070470146C86880B270470161704741618A
:1004A00070470AB1016100E041617047C160704767
:1004B0004FF480320A43826181618261826982697C
:1004C000704702460020344B18684FF6807318407E
:1004D00040EA02100843304B186070472F49C8614A
:1004E0007047F0B50A4600230024002100252A4E5B
:1004F0007168C0F3034583B200F44016B6F5401F9F
:1005000008D121F07061244E766826F07066224F83
:100510007E6012E000F48016B6F5801F06D1032637
:1005200006FA05F4A14341F0706106E0460D36017C
:1005300003FA06F6B14341F0706122B1460D36016F
:1005400003FA06F63143144E7160F0BD30B5002257
:100550008B071C0F0F2303FA04F20F4B08338C1088
:1005600053F8243093430C4C08348D1044F8253054
:1005700023468C1053F824308C07240F00FA04F41F
:100580002343054C08348D1044F8253030BD00005D
:100590000014014000F8FEBF0000014000002042AE
:1005A000DA48006840F00100D84908600846406811
:1005B000D7490840D549486008460068D5490840F1
:1005C000D24908600846006820F480200860084688
:1005D000406820F4FE004860002088607047CB49E6
:1005E000096821F48031C94A11601146096821F473
:1005F00080211160B0F5803F03D0B0F5802F0ED17F
:1006000006E0C249096841F48031C04A116007E040
:10061000BE49096841F4A021BC4A116000E000BF56
:1006200000BF704710B501460022002300204A1188
:10063000012A02D1B54C236806E0022A02D1B34C4C
:10064000236A01E0B14C636A01F01F020124944067
:100650001C4201D0012000E0002010BD70B5002434
:100660000025002600BF3120FFF7DCFF0646641C92
:1006700016B9B4F5A06FF6D13120FFF7D3FF08B15A
:10068000012500E00025284670BD014600209F4A54
:10069000106820F0F80040EAC100106070479E49E1
:1006A0000860704702460020984B586820F47C1080
:1006B00042EA01031843954B586070479649086613
:1006C000704701460020914A506820F0030008431B
:1006D000506070478D48406800F00C00704701463C
:1006E00000208A4A506820F0F000084350607047AC
:1006F00001460020854A506820F4E06008435060BD
:10070000704701460020814A506820F4605040EA5A
:10071000C1005060704729B17C4A527A02437B4B3A
:100720005A7206E0794A527AC343DBB21A40774BD9
:100730005A72704779490860704701460020734A31
:10074000506820F440400843506070470021744ACC
:1007500011706E4A82F82010012802D0042808D1B6
:1007600003E001216E4A117004E005216C4A11700A
:1007700000E000BF00BF70476A49086070476349E6
:10078000096A0143614A116270476749086070470E
:1007900030B500210022002400235C4D6D6805F077
:1007A0000C0121B1042905D0082923D105E05F4DB2
:1007B000056022E05D4D05601FE0544D6D6805F455
:1007C0007012022505EB9242504D6D6805F480349D
:1007D0001CB9574D554305600BE04C4D6D6815F441
:1007E000003F03D0524D5543056002E04F4D554345
:1007F000056002E04D4D056000BF00BF434D6D68D0
:1008000005F0F00109094B4D6B5C0568DD40456062
:100810003E4D6D6805F4E061090A464D6B5C456824
:10082000DD408560394D6D6805F46051C90A414D60
:100830006B5C4568DD40C560344D6D6805F4404132
:10084000890B3D4D6B5CC568B5FBF3F5056130BDAB
:1008500029B12E4A526902432C4B5A6104E02B4ABB
:1008600052698243294B5A61704729B1274A9269DC
:100870000243264B9A6104E0244A92698243234B47
:100880009A61704729B1214AD26902431F4BDA614C
:1008900004E01E4AD26982431C4BDA61704729B1D9
:1008A0001A4AD2680243194BDA6004E0174AD26848
:1008B0008243164BDA60704729B1144A1269024329
:1008C000124B1A6104E0114A126982430F4B1A61FC
:1008D00070471A49086070470F49C86470470B4950
:1008E000C87170470948406A40F080700749486203
:1008F000704701460020054A92680A4201D0012053
:1009000000E00020704701498872704700100240E3
:100910000000FFF8FFFFF6FE00004242D80042420E
:1009200020100240800442423C04424200127A00FD
:1009300000093D0000000020100000204004424259
:1009400010B50446D949601A8C422BD006DCD84831
:10095000201813D0B0F5806F38D119E0B0F5806F52
:100960002AD0B0F56C4F31D101218803FFF797FFF2
:1009700000214FF48040FFF792FF28E00121480456
:10098000FFF79AFF00214FF40030FFF795FF1EE0BC
:1009900001218804FFF790FF00214FF48020FFF72A
:1009A0008BFF14E00121C804FFF786FF00214FF4FC
:1009B0000020FFF781FF0AE001210805FFF77CFF17
:1009C00000214FF48010FFF777FF00E000BF00BF69
:1009D00010BD2DE9F04786B005460E460024A2461C
:1009E00000BF00BF00272F462C8A4CF6FF70044042
:1009F000F08804432C82AC894EF6F3100440B08892
:100A000031890843718908430443AC81AC8A4FF6AD
:100A1000FF400440B0890443AC8201A8FFF7B8FE50
:100A2000A448874202D1DDF810A001E0DDF80CA057
:100A30000AEBCA0000EB0A1031688900B0FBF1F83C
:100A40006420B8FBF0F004012009642101FB108947
:100A5000322000EB0910B0FBF1F000F00F0004436E
:100A60002C8106B0BDE8F0874FF4165101600021DB
:100A70008180C18001810C214181002181817047E9
:100A800010B502460020108A4FF2FF0318400B8871
:100A90004C8823438C882343CC88234318431082FB
:100AA00010BD0021018041808180C180704721B14B
:100AB000828942F40052828104E082894DF6FF73FC
:100AC0001A4082817047F0B50346002400260025B5
:100AD00000201846C1F3421401F01F06012707FA4F
:100AE00006F5012C01D10C3004E0022C01D11030AC
:100AF00000E014301AB107682F43076002E007686E
:100B0000AF430760F0BD10B51AB1838A0B438382EF
:100B100004E0838ACC43A4B22340838210BD028ABE
:100B20004FF6F0731A400282028A0A43028270472B
:100B300082894FF2FF731A40828182890A4382813F
:100B4000704721B1828942F00202828104E08289E9
:100B50004FF6FD731A4082817047028A4FF6DF73A9
:100B60001A400282028A0A430282704721B1028A35
:100B700042F48042028204E0028A4BF6FF731A407C
:100B800002827047C1F3080282807047014688885C
:100B9000C0F308007047818941F0010181817047ED
:100BA000028BD2B20283028B42EA01220283704797
:100BB000028B02F47F420283028B0A430283704756
:100BC00021B1828A42F02002828204E0828A4FF6BA
:100BD000DF731A408282704721B1828A42F010028C
:100BE000828204E0828A4FF6EF731A408282704755
:100BF00021B1828A42F00802828204E0828A4FF6A2
:100C0000F7731A4082827047828A4FF6FB731A404C
:100C10008282828A0A438282704721B1828A42F0AC
:100C20000202828204E0828A4FF6FD731A408282B9
:100C300070470246002013880B4201D0012000E0DB
:100C400000207047CA430280704770B502460B46C9
:100C50000024002100250020C3F3421503F01F01EA
:100C6000012606FA01F1012D02D19689314006E0F4
:100C7000022D02D1168A314001E0968A31401C12C1
:100C8000012606FA04F41688344011B10CB1012093
:100C900000E0002070BD10B5002200230A120124DC
:100CA0009440A3B2DC43048010BD0000004C00401F
:100CB00000BCFFBF0038014000210020434A1268F9
:100CC00042F48032414B1A6000BF404A126802F47D
:100CD0000030491C10B9B1F5A06FF6D13B4A12683B
:100CE00012F4003F01D0012000E00020012843D190
:100CF000374A126842F01002354B1A601A461268E1
:100D000022F003021A601A46126842F002021A60C8
:100D10002E4A52682D4B5A601A4652685A601A463B
:100D2000526842F480625A601A46526822F47C1279
:100D30005A601A46526842F4E8125A601A4612681B
:100D400042F080721A6000BF204A126812F0007FE1
:100D5000FAD01E4A526822F003021C4B5A601A460F
:100D6000526842F002025A6000BF184A526802F00C
:100D70000C02082AF9D101E000BFFEE7704710B568
:100D8000FFF79AFF10BD10B51048006840F0010051
:100D90000E490860084640680E4908400B49486003
:100DA000084600680C490840084908600846006881
:100DB00020F4802008600846406820F4FE00486067
:100DC00000208860FFF7DBFF10BD0000001002402C
:100DD000002002400000FFF8FFFFF6FE064C074D22
:100DE00006E0E06840F0010394E8070098471034FB
:100DF000AC42F6D3FFF7A0F9200E0008400E000821
:100E000002E008C8121F08C1002AFAD170477047D3
:100E1000002001E001C1121F002AFBD17047000031
:100E2000400E00080000002014000000000E000822
:100E3000540E00081400002004020000100E0008E8
:100E40000000000001020304010203040607080970
:040E5000020406088A
:0400000508000147A7
:00000001FF
