:020000040800F2
:10000000000400204701000885010008870100085E
:100010008B0100088F010008930100080000000018
:100020000000000000000000000000009701000830
:1000300099010008000000009B0100089D010008D4
:1000400067010008670100086701000867010008F0
:1000500067010008670100086701000867010008E0
:1000600067010008670100086701000867010008D0
:1000700067010008670100086701000867010008C0
:1000800067010008670100086701000867010008B0
:1000900067010008670100086701000867010008A0
:1000A0006701000867010008670100086701000890
:1000B0006701000867010008670100086701000880
:1000C0006701000867010008670100086701000870
:1000D0006701000867010008670100086701000860
:1000E0006701000867010008670100086701000850
:1000F0006701000867010008670100086701000840
:10010000670100086701000867010008670100082F
:10011000670100086701000867010008670100081F
:10012000670100086701000867010008670100080F
:10013000DFF80CD001F0B8F900480047750100085D
:1001400018020020704708488047084981F3088852
:1001500007480047FEE7FEE7FEE7FEE7FEE7FEE7AB
:10016000FEE7FEE7FEE7FEE7450100081802002073
:100170003101000801F06EF900F012F801E000F022
:1001800072F8FCE7704700BFFEE700BFFEE700BF64
:10019000FEE700BFFEE770477047704770470000FA
:1001A00000B585B0012144F2040000F0C5FE4FF413
:1001B0000070ADF8100018208DF8130003208DF8A2
:1001C000120004A9F94800F01BFC4FF48060ADF860
:1001D000100004208DF8130004A9F44800F010FC6E
:1001E0000220ADF8100001208DF8120048208DF893
:1001F000130004A9ED4800F003FC4FF4E130009037
:100200000020ADF80400ADF80600ADF80800ADF828
:100210000C000C20ADF80A006946E54800F039FFF3
:100220000121E34800F0A3FF05B000BD10B504466E
:100230002146DF4801F003F800BF8021DC4801F0CF
:1002400055F80028F9D010BD10B504462021D84833
:1002500001F04CF808B9002010BDD54800F0F3FFBC
:1002600020700120F8E708B500200090002459E331
:1002700052E39DF80000412809DB9DF800005A2850
:1002800005DC9DF80010CA4800F0D9FF44E39DF852
:100290000000302809DB9DF80000392805DC9DF8B6
:1002A0000010C34800F0CBFF36E3BE2C15D19DF8FB
:1002B0000000A92811D1402000900121BB4800F086
:1002C00032FC9DF8001001EBC010C0B200909DF808
:1002D0000010B74800F0B3FF1EE3BD2C15D19DF808
:1002E0000000F22811D1412000900121AF4800F018
:1002F0001AFC9DF8001001EBC010C0B200909DF8F0
:100300000010AB4800F09BFF06E3BC2C15D19DF814
:100310000000BD2811D1422000900121A34800F027
:1003200002FC9DF8001001EBC010C0B200909DF8D7
:1003300000109F4800F083FFEEE2BD2C15D19DF820
:100340000000FA2811D1432000900121974800F0C5
:10035000EAFB9DF8001001EBC010C0B200909DF8C0
:100360000010934800F06BFFD6E2C32C15D19DF826
:100370000000C92811D14420009001218B4800F0D1
:10038000D2FB9DF8001001EBC010C0B200909DF8A8
:100390000010874800F053FFBEE2C12C15D19DF834
:1003A0000000C92811D14520009001217F4800F0AC
:1003B000BAFB9DF8001001EBC010C0B200909DF890
:1003C00000107B4800F03BFFA6E2BC2C15D19DF845
:1003D0000000AA2811D1462000900121734800F0A6
:1003E000A2FB9DF8001001EBC010C0B200909DF878
:1003F00000106F4800F023FF8EE2BA2C15D19DF853
:100400000000DA2811D1472000900121674800F050
:100410008AFB9DF8001001EBC010C0B200909DF85F
:100420000010634800F00BFF76E2BB2C15D19DF85D
:100430000000A62811D14820009001215B4800F05F
:1004400072FB9DF8001001EBC010C0B200909DF847
:100450000010574800F0F3FE5EE2D52C15D19DF850
:100460000000E32811D14920009001214F4800F0FD
:100470005AFB9DF8001001EBC010C0B200909DF82F
:1004800000104B4800F0DBFE46E2CB2C15D19DF866
:100490000000D52811D14A2000900121434800F0E6
:1004A00042FB9DF8001001EBC010C0B200909DF817
:1004B00000103F4800F0C3FE2EE2CD2C15D19DF870
:1004C0000000EE2811D14B2000900121374800F0A8
:1004D0002AFB9DF8001001EBC010C0B200909DF8FF
:1004E0000010334800F0ABFE16E2C32C15D19DF886
:1004F0000000F62811D14C20009001212B4800F07B
:1005000012FB9DF8001001EBC010C0B200909DF8E6
:100510000010274800F093FEFEE1B82C15D19DF89D
:100520000000D32811D14D20009001211F4800F078
:10053000FAFA9DF8001001EBC010C0B200909DF8CF
:1005400000101B4800F07BFEE6E1C22C15D19DF89F
:100550000000B32811D14E2000900121134800F073
:10056000E2FA9DF8001001EBC010C0B200909DF8B7
:1005700000100F4800F063FECEE1D42C1AD19DF894
:100580000000A52816D14F2000900121074800F057
:10059000CAFA9DF8001001EBC010C0B200909DF89F
:1005A0000010034800F04BFEB6E1000000080140D7
:1005B00000380140B62C15D19DF80000F52811D166
:1005C000502000900121D84800F0ADFA9DF80010AD
:1005D00001EBC010C0B200909DF80010D34800F0AD
:1005E0002EFE99E1CF2C15D19DF80000E62811D1FF
:1005F000512000900121CC4800F095FA9DF80010A0
:1006000001EBC010C0B200909DF80010C74800F088
:1006100016FE81E1D42C15D19DF80000C12811D11E
:10062000522000900121C04800F07DFA9DF8001092
:1006300001EBC010C0B200909DF80010BB4800F064
:10064000FEFD69E1B92C15D19DF80000F02811D10B
:10065000532000900121B44800F065FA9DF8001085
:1006600001EBC010C0B200909DF80010AF4800F040
:10067000E6FD51E1C72C15D19DF80000ED2811D100
:10068000542000900121A84800F04DFA9DF8001078
:1006900001EBC010C0B200909DF80010A34800F01C
:1006A000CEFD39E1D32C15D19DF80000E52811D1FC
:1006B0005520009001219C4800F035FA9DF800106B
:1006C00001EBC010C0B200909DF80010974800F0F8
:1006D000B6FD21E1B42C15D19DF80000A82811D158
:1006E000562000900121904800F01DFA9DF800105E
:1006F00001EBC010C0B200909DF800108B4800F0D4
:100700009EFD09E1B92C15D19DF80000F32811D107
:10071000572000900121844800F005FA9DF8001050
:1007200001EBC010C0B200909DF800107F4800F0AF
:1007300086FDF1E0D42C15D19DF80000C62811D11A
:10074000582000900121784800F0EDF99DF8001044
:1007500001EBC010C0B200909DF80010734800F08B
:100760006EFDD9E0B22C15D19DF80000D82811D12A
:100770005920009001216C4800F0D5F99DF8001037
:1007800001EBC010C0B200909DF80010674800F067
:1007900056FDC1E0C92C15D19DF80000C22811D129
:1007A0005A2000900121604800F0BDF99DF800102A
:1007B00001EBC010C0B200909DF800105B4800F043
:1007C0003EFDA9E0B82C15D19DF80000CA2811D132
:1007D0005B2000900121544800F0A5F99DF800101D
:1007E00001EBC010C0B200909DF800104F4800F01F
:1007F00026FD91E0C72C15D19DF80000E02811D10D
:100800005C2000900121484800F08DF99DF800100F
:1008100001EBC010C0B200909DF80010434800F0FA
:100820000EFD79E0C42C15D19DF80000FE2811D1F1
:100830005D20009001213C4800F075F99DF8001002
:1008400001EBC010C0B200909DF80010374800F0D6
:10085000F6FC61E0D02C15D19DF80000C22811D122
:100860005E2000900121304800F05DF99DF80010F5
:1008700001EBC010C0B200909DF800102B4800F0B2
:10088000DEFC49E0B82C15D19DF80000DB2811D121
:100890005F2000900121244800F045F99DF80010E8
:1008A00001EBC010C0B200909DF800101F4800F08E
:1008B000C6FC31E0B02C15D19DF80000C42811D140
:1008C000602000900121184800F02DF99DF80010DB
:1008D00001EBC010C0B200909DF80010134800F06A
:1008E000AEFC19E0CC2C15D19DF80000A82811D140
:1008F0006120009001210C4800F015F99DF80010CE
:1009000001EBC010C0B200909DF80010074800F045
:1009100096FC01E09DF800406846FFF795FC002832
:100920007FF4A7ACA4E400000008014000380140B7
:1009300010B50446C649601A8C422FD009DCC54860
:10094000204480B1B0F5806F16D0B0F5006F4AD169
:100950001BE0B0F5806F2AD0B0F5006F30D0B0F555
:10096000406F40D135E00121042000F0FFFA002162
:10097000042000F0FBFA37E00121082000F0F6FA2D
:100980000021082000F0F2FA2EE00121102000F0F2
:10099000EDFA0021102000F0E9FA25E001212020E5
:1009A00000F0E4FA0021202000F0E0FA1CE0012130
:1009B000402000F0DBFA0021402000F0D7FA13E0DD
:1009C0000121802000F0D2FA0021802000F0CEFA30
:1009D0000AE00121080200F0C9FA00214FF48070FA
:1009E00000F0C4FA00E000BF00BF10BD10B5012147
:1009F000084600F0BBFA0021012000F0B7FA10BD54
:100A00002DE9F041024600250026002000230024A5
:100A1000002791F803C00CF00F0591F803C00CF00B
:100A2000100CBCF1000F03D091F802C04CEA050590
:100A300091F800C0BCF1000F31D0146800202BE009
:100A40004FF0010C0CFA00F3B1F800C00CEA0306F9
:100A50009E4220D183004FF00F0C0CFA03F7BC43E9
:100A600005FA03FC4CEA040491F803C0BCF1280F1A
:100A700006D14FF0010C0CFA00FCC2F814C00AE0D9
:100A800091F803C0BCF1480F05D14FF0010C0CFAEE
:100A900000FCC2F810C0401C0828D1D31460B1F883
:100AA00000C0BCF1FF0F34DD546800202EE000F1DF
:100AB000080C4FF0010808FA0CF3B1F800C00CEA7A
:100AC00003069E4221D183004FF00F0C0CFA03F76E
:100AD000BC4305FA03FC4CEA040491F803C0BCF1E2
:100AE000280F05D100F1080C08FA0CF8C2F81480A0
:100AF00091F803C0BCF1480F07D100F1080C4FF08A
:100B0000010808FA0CF8C2F81080401C0828CED35F
:100B10005460BDE8F0814FF6FF71018002218170C1
:100B20000421C17070470246002093680B400BB14E
:100B3000012000E0002070470146886880B27047BD
:100B400002460020D3680B400BB1012000E00020DA
:100B500070470146C86880B27047016170474161C3
:100B600070470AB1016100E041617047C1607047A0
:100B70004FF480320A4382618161826182698269B5
:100B8000704702460020344B18684FF680731840B7
:100B900040EA02100843304B186070472F49C86183
:100BA0007047F0B50A4600230024002100252A4E94
:100BB0007168C0F3034583B200F44016B6F5401FD8
:100BC00008D121F07061244E766826F07066224FBD
:100BD0007E6012E000F48016B6F5801F06D1032671
:100BE00006FA05F4A14341F0706106E0460D3601B6
:100BF00003FA06F6B14341F0706122B1460D3601A9
:100C000003FA06F63143144E7160F0BD30B5002290
:100C10008B071C0F0F2303FA04F20F4B08338C10C1
:100C200053F8243093430C4C08348D1044F825308D
:100C300023468C1053F824308C07240F00FA04F458
:100C40002343054C08348D1044F8253030BD000096
:100C50000014014000F8FEBF0000014000002042E7
:100C6000DE48006840F00100DC4908600846406842
:100C7000DB490840D949486008460068D94908401E
:100C8000D64908600846006820F4802008600846BD
:100C9000406820F4FE004860002088607047CF491B
:100CA000096821F48031CD4A11601146096821F4A8
:100CB00080211160B0F5803F03D0B0F5802F0ED1B8
:100CC00006E0C649096841F48031C44A116007E072
:100CD000C249096841F4A021C04A116000E000BF88
:100CE00000BF704710B501460022002300204A11C2
:100CF000012A02D1B94C236806E0022A02D1B74C7E
:100D0000236A01E0B54C636A01F01F02012494409C
:100D10001C400CB1012000E0002010BD38B50020BF
:100D200000900024002500BF3120FFF7DBFF0546BF
:100D30000098401C00901DB90098B0F5A06FF3D149
:100D40003120FFF7CFFF08B1012400E00024204646
:100D500038BD01460020A14A106820F0F80040EAA2
:100D6000C10010607047A04908607047024600202B
:100D70009A4B586820F47C1042EA01031843974BC1
:100D80005860704798490866704701460020934AAA
:100D9000506820F003000843506070478F48406857
:100DA00000F00C007047014600208C4A506820F08B
:100DB000F00008435060704701460020874A5068A1
:100DC00020F4E06008435060704701460020834AE9
:100DD000506820F4605040EAC1005060704729B16B
:100DE0007E4A527A02437D4B5A7204E07B4A527A21
:100DF00082437A4B5A7270477B49D83108607047FA
:100E000001460020754A506820F440400843506075
:100E100070470021714A20321170704A82F8201008
:100E2000012802D004280AD104E001216B4A2032B3
:100E3000117005E00521694A2032117000E000BF01
:100E400000BF70476949086070476449096A0143F7
:100E5000624A11627047654944390860704730B58D
:100E600000210022002400235C4D6D6805F00C0178
:100E700021B1042905D0082923D105E05C4D056086
:100E800022E05B4D05601FE0544D6D6805F4701263
:100E9000022505EB9242514D6D6805F480341CB972
:100EA000544D554305600BE04C4D6D6805F400351D
:100EB0001DB1504D5543056002E04D4D5543056051
:100EC00002E04B4D056000BF00BF444D6D6805F06A
:100ED000F0010909484D6B5C0568DD4045603F4DF8
:100EE0006D6805F4E061090A434D6B5C4568DD40BF
:100EF00085603A4D6D6805F46051C90A3E4D6B5CE2
:100F00004568DD40C560354D6D6805F44041890B8D
:100F10003A4D6B5CC568B5FBF3F5056130BD29B191
:100F20002E4A526902432D4B5A6104E02B4A526902
:100F300082432A4B5A61704729B1284A9269024379
:100F4000264B9A6104E0254A92698243234B9A61B9
:100F5000704729B1214AD2690243204BDA6104E08B
:100F60001E4AD26982431D4BDA61704729B11B4A80
:100F7000D2680243194BDA6004E0184AD26882430F
:100F8000164BDA60704729B1144A12690243134BB9
:100F90001A6104E0114A12698243104B1A617047CA
:100FA00012494039086070470F49C86470470B49BF
:100FB000C87170470948406A40F08070074948622C
:100FC000704701460020054A92680A400AB1012094
:100FD00000E000207047014988727047001002400D
:100FE0000000FFF8FFFFF6FE00004242800442428C
:100FF00000127A0000093D000000002010000020CF
:1010000010B50446D749601A8C422BD006DCD6486E
:10101000204498B1B0F5806F38D119E0B0F5806FF9
:101020002AD0B0F56C4F31D101218803FFF79EFF24
:1010300000214FF48040FFF799FF28E00121480488
:10104000FFF7A1FF00214FF40030FFF79CFF1EE0E7
:1010500001218804FFF797FF00214FF48020FFF75C
:1010600092FF14E00121C804FFF78DFF00214FF427
:101070000020FFF788FF0AE001210805FFF783FF42
:1010800000214FF48010FFF77EFF00E000BF00BF9B
:1010900010BD2DE9F04786B005460E460024A24655
:1010A00000BF00BF00272F462C8A4CF6FF7004407B
:1010B000F08804432C82AC894EF6F3100440B088CB
:1010C00031890843718908430443AC81AC8A4FF6E7
:1010D000FF400440B0890443AC8201A8FFF7BFFE83
:1010E000A248874202D1DDF810A001E0DDF80CA093
:1010F0000AEBCA0000EB0A1031688900B0FBF1F876
:101100006420B8FBF0F004012009642101FB108980
:10111000322000EB0910B0FBF1F000F00F000443A7
:101120002C8106B0BDE8F0874FF416510160002114
:101130008180C18001810C21418100218181704722
:1011400010B502460020108A4FF2FF0318400B88AA
:101150004C8823438C882343CC8823431843108234
:1011600010BD0021018041808180C180704721B184
:10117000828942F40052828104E082894DF6FF7335
:101180001A4082817047F0B50346002400260025EE
:1011900000201846C1F3421401F01F06012707FA88
:1011A00006F5012C01D10C3004E0022C01D11030E5
:1011B00000E014301AB107682F43076002E00768A7
:1011C000AF430760F0BD1AB1838A0B43838202E00C
:1011D000838A8B4383827047028A4FF6F0731A40EA
:1011E0000282028A0A430282704782894FF2FF73A9
:1011F0001A40828182890A438281704721B18289A3
:1012000042F00202828104E082894FF6FD731A40A7
:1012100082817047028A4FF6DF731A400282028A87
:101220000A430282704721B1028A42F4804202825C
:1012300004E0028A4BF6FF731A4002827047C1F342
:1012400008028280704701468888C0F30800704712
:10125000818941F0010181817047028BD2B2028302
:10126000028B42EA012202837047028B02F47F4222
:101270000283028B0A430283704721B1828A42F0C3
:101280002002828204E0828A4FF6DF731A40828253
:10129000704721B1828A42F01002828204E0828A81
:1012A0004FF6EF731A408282704721B1828A42F072
:1012B0000802828204E0828A4FF6F7731A40828223
:1012C0007047828A4FF6FB731A408282828A0A43F1
:1012D0008282704721B1828A42F00202828204E057
:1012E000828A4FF6FD731A408282704702460020C0
:1012F00013880B400BB1012000E000207047CA4367
:101300000280704770B502460B460024002100257C
:101310000020C3F3421503F01F01012606FA01F174
:10132000012D02D19689314006E0022D02D1168AA4
:10133000314001E0968A31401C12012606FA04F47D
:101340001688344011B10CB1012000E0002070BDBE
:1013500010B5002200230A1201249440A3B2DC43FA
:10136000048010BD004C004000BCFFBF00380140AD
:101370000CB50020019000904748006840F4803090
:101380004549086000BF4448006800F40030009000
:101390000198401C0190009818B90198B0F5A06F11
:1013A000F1D13D48006800F4003010B101200090F8
:1013B00001E0002000900098012844D137480068DF
:1013C00040F01000354908600846006820F003002E
:1013D00008600846006840F0020008602E48406837
:1013E0002D4948600846406848600846406840F417
:1013F000806048600846406820F47C1048600846D9
:10140000406840F4E81048600846006840F080708A
:10141000086000BF2048006800F000700028F9D084
:101420001D48406820F003001B494860084640689A
:1014300040F00200486000BF1748406800F00C0010
:101440000828F9D101E000BFFEE70CBD10B5FFF799
:101450008FFF10BD10B51048006840F001000E4924
:101460000860084640680E4908400B494860084635
:1014700000680C490840084908600846006820F4E4
:10148000802008600846406820F4FE004860002084
:101490008860FFF7DBFF10BD001002400020024013
:1014A0000000FFF8FFFFF6FE064C074D06E0E0687F
:1014B00040F0010394E8070098471034AC42F6D39B
:1014C000FEF73AFEEC1400080C15000802E008C80C
:1014D000121F08C1002AFAD170477047002001E0AE
:1014E00001C1121F002AFBD1704700000C15000833
:1014F0000000002014000000CC1400082015000893
:101500001400002004020000DC14000800000000A9
:101510000102030401020304060708090204060885
:0400000508000147A7
:00000001FF
